S00C0000414441532E73726563FF
S11300000C942A000C943C010C944B010C94470072
S11300100C9447000C9447000C9447000C94470040
S11300200C9447000C9447000C9447000C94470030
S11300300C9447000C9447000C9447000C94470020
S11300400C9447000C9447000C9447000C94470010
S11300500C94470011241FBECFE5D8E0DEBFCDBF0E
S113006010E0A0E6B0E0EEE4FDE002C005900D92E1
S1130070A83CB107D9F720E0A8ECB0E001C01D927C
S1130080AA3CB207E1F70E94EF010C94A5060C9478
S1130090000095B39D7F95BB95B39E7F95BB8BBBAD
S11300A085B3846085BB8FEC97E00197F1F700C0BE
S11300B0000085B38B7F85BB089595B39D7F95BB69
S11300C095B3916095BB8BBB85B3846085BB8FEC86
S11300D097E00197F1F700C0000085B38B7F85BBE3
S11300E008950F931F93CF93DF938C01C0E0D0E06A
S11300F009C00E945D008FE99FE00197F1F700C0FD
S113010000002196F801EC0FFD1F80818111F1CFD1
S1130110DF91CF911F910F9108958FEF8ABB84B324
S1130120876084BB8FE39CE90197F1F700C000006E
S113013088E30E9449008EE00E94490081E00E9409
S113014049008FEC97E00197F1F700C00000089593
S113015084B3886084BB84B38F7E84BB089585B3E5
S1130160886085BB8AE18A95F1F700C085B3877FF3
S113017085BB9C9BFECF1DBC1CBC8EB582608EBD16
S11301809C99FECF1EBC6CB57DB580E090E00E94CA
S1130190A30228E23EE74CE05DE30E94090320E06D
S11301A030E040E05FE30E9409030E947402CB0147
S11301B00196089587B3896087BB81B3806F81BB43
S11301C083B78A6683BF85B58A6685BD88B3886030
S11301D088BB82B3806882BB08958CBF63BD0895D9
S11301E088B3816088BB82B3806282BB82B38F7E16
S11301F082BB82B38F7B82BB089588B3816088BB46
S113020082B38F7E82BB82B38F7D82BB82B38F7BAE
S113021082BB089582B3806282BB88B38E7F88BB21
S113022082B38F7E82BB82B38F7B82BB089588B3F7
S11302308E7F88BB82B38F7D82BB82B38F7E82BB6D
S113024082B38F7B82BB60E080E00E94ED00089562
S113025081B3877F81BB81B38B7F81BB82B38C6089
S113026082BB85B7836085BF85B78C6085BF8BB73C
S1130270806C8BBF789408951F920F920FB60F92E3
S113028011248F9382E08093C9008F910F900FBE49
S11302900F901F9018951F920F920FB60F92112472
S11302A08F9381E08093C9008F910F900FBE0F90C0
S11302B01F901895829904C0839B04C081E008951F
S11302C082E0089580E0089587B3846F87BB88B384
S11302D08B7088BB089598B39B7098BB813051F0A4
S11302E028F0823059F0833069F0089588B380682B
S11302F088BB089588B3806288BB089588B38064FE
S113030088BB089588B3806188BB88B3846088BB48
S113031008958B309105C0F082339105B8F44FEF06
S1130320489F9001499F300D1124265F3940ADEC60
S1130330BCEC0E949E0396958795929582958F704A
S113034089279F708927089580E008958FEF089585
S1130350DF92EF92FF920F931F93CF93DF93CDB76A
S1130360DEB761970FB6F894DEBF0FBECDBF182F6E
S1130370092FD62E7A0181E00E94490080E80E946C
S113038049001F92DF920F931F9380E690E09F93A2
S11303908F931F9281E18F938E010F5F1F4F1F93E5
S11303A00F930E94AD03C8010E94710080EC0E946B
S11303B04900C7010E9471000FB6F894DEBF0FBE5A
S11303C0CDBF61960FB6F894DEBF0FBECDBFDF91EF
S11303D0CF911F910F91FF90EF90DF9008950E94AD
S11303E08D000E94A8000E94DA000E9428010E9449
S11303F0640180E80E9449008CE690E00E9471004C
S113040080EC0E9449008DE790E00E9471002FE784
S113041088E391E0215080409040E1F700C0000063
S11304200E94AF008C010E948901C82F0E945A01CA
S1130430C11104C083E08093C80010C0813021F052
S113044058F0823029F00AC082E08093C80006C0C8
S113045081E08093C80002C01092C8008091C80057
S1130460813099F028F08230F1F0833051F131C0BD
S11304706C2F8C2F0E94ED000E94F0004EE850E09B
S11304806C2FC8010E94A80124C06C2F8C2F869564
S11304900E94ED000E940A014DE950E06C2FC80152
S11304A00E94A80116C06C2F66958C2F0E94ED0047
S11304B00E94FD004AEA50E06C2FC8010E94A80186
S11304C008C00E94170148EB50E06C2FC8010E943D
S11304D0A8018091C8000E946B018FE097E2019708
S11304E0F1F700C000009CCF0E94E80288F09F57FB
S11304F098F0B92F9927B751B0F0E1F0660F771F44
S1130500881F991F1AF0BA95C9F714C0B13091F039
S11305100E940203B1E008950C940203672F782F20
S11305208827B85F39F0B93FCCF3869577956795FE
S1130530B395D9F73EF490958095709561957F4F6A
S11305408F4F9F4F0895E89409C097FB3EF4909510
S11305508095709561957F4F8F4F9F4F9923A9F098
S1130560F92F96E9BB279395F69587957795679527
S1130570B795F111F8CFFAF4BB0F11F460FF1BC06B
S11305806F5F7F4F8F4F9F4F16C0882311F096E9FE
S113059011C0772321F09EE8872F762F05C06623AC
S11305A071F096E8862F70E060E02AF09A95660F65
S11305B0771F881FDAF7880F9695879597F908951E
S11305C057FD9058440F551F59F05F3F71F0479500
S11305D0880F97FB991F61F09F3F79F087950895E5
S11305E0121613061406551FF2CF4695F1DF08C004
S11305F0161617061806991FF1CF86957105610521
S113060008940895E894BB2766277727CB0197F9C8
S113061008950E941C030C948D030E947F0338F0FC
S11306200E94860320F0952311F00C9476030C9419
S11306307C0311240C9403030E94E00270F3959F41
S1130640C1F3950F50E0551F629FF001729FBB27C5
S1130650F00DB11D639FAA27F00DB11DAA1F649F61
S11306606627B00DA11D661F829F2227B00DA11D14
S1130670621F739FB00DA11D621F839FA00D611D9A
S1130680221F749F3327A00D611D231F849F600DBB
S1130690211D822F762F6A2F11249F5750409AF0E4
S11306A0F1F088234AF0EE0FFF1FBB1F661F771F70
S11306B0881F91505040A9F79E3F510580F00C943B
S11306C076030C9403035F3FE4F3983ED4F38695DA
S11306D077956795B795F795E7959F5FC1F7FE2BDB
S11306E0880F911D9695879597F9089597F99F67B7
S11306F080E870E060E008959FEF80EC08950024A6
S11307000A941616170618060906089500240A9472
S113071012161306140605060895092E0394000CF8
S113072011F4882352F0BB0F40F4BF2B11F460FF87
S113073004C06F5F7F4F8F4F9F4F0895A29FB001FA
S1130740B39FC001A39F700D811D1124911DB29F01
S1130750700D811D1124911D0895AEE0B0E0E3EB0E
S1130760F3E00C947C060D891E898F89988D26E010
S11307702C831A83098397FF02C080E090E80197D5
S11307809E838D83AE01455E5F4F698D7A8DCE0168
S113079001960E94DD034D815E8157FD0AC02F81C1
S11307A03885421753070CF49A01F801E20FF31F3E
S11307B010822E96E4E00C949806ABE0B0E0E3EEF1
S11307C0F3E00C946E066C017B018A01FC01178234
S11307D01682838181FFCCC1CE0101963C01F601D2
S11307E09381F70193FD859193FF81917F01882384
S11307F009F4BAC1853239F493FD859193FF81914F
S11308007F01853229F4B60190E00E94D405E7CF38
S1130810912C212C312CFFE1F315D8F08B3279F097
S113082038F4803279F08332A1F4232D20611DC085
S11308308D3261F0803369F4232D216016C0832D3D
S11308408260382EE32DE4603E2E2AC0F32DF8603A
S11308501DC037FC2DC020ED280F2A3040F08E3209
S1130860B9F436FC81C1232D2064322E19C036FE22
S113087006C08AE0989E200D1124922E11C0EAE051
S11308802E9E200D1124222EF32DF0623F2E08C03F
S11308908C3621F4832D8068382E02C0883641F4CA
S11308A0F70193FD859193FF81917F018111B3CF6E
S11308B0982F9F7D9554933028F40C5F1F4F9FE32E
S11308C099830DC0833631F0833771F0833509F095
S11308D059C021C0F801808189830E5F1F4F88248D
S11308E08394912C530113C02801F2E04F0E511C44
S11308F0F801A080B18036FE03C0692D70E002C00B
S11309006FEF7FEFC5010E94C9054C018201F32DF1
S1130910FF773F2E16C0280122E0420E511CF80139
S1130920A080B18036FE03C0692D70E002C06FEF75
S11309307FEFC5010E94BE054C01F32DF0683F2EE8
S1130940820133FC1BC0822D90E088169906B0F416
S1130950B60180E290E00E94D4052A94F4CFF50118
S113096037FC859137FE81915F01B60190E00E94CA
S1130970D40521102A9421E0821A9108811491044B
S113098071F7E8C0843611F0893641F5F80137FE75
S113099007C060817181828193810C5F1F4F08C001
S11309A060817181072E000C880B990B0E5F1F4F1D
S11309B0F32DFF763F2E97FF09C090958095709593
S11309C061957F4F8F4F9F4FF0683F2E2AE030E0B4
S11309D0A3010E941006882E861845C0853731F47D
S11309E0232D2F7EB22E2AE030E025C0932D997F4F
S11309F0B92E8F36C1F018F4883579F0B5C0803738
S1130A0019F0883721F0B0C0E92FE061BE2EB4FEA2
S1130A100DC0FB2DF460BF2E09C034FE0AC0292F7F
S1130A202660B22E06C028E030E005C020E130E0A8
S1130A3002C020E132E0F801B7FE07C06081718195
S1130A40828193810C5F1F4F06C06081718180E0B9
S1130A5090E00E5F1F4FA3010E941006882E861897
S1130A60FB2DFF773F2E36FE0DC0232D2E7FA22EA9
S1130A70891458F434FE0BC032FC09C0832D8E7ED9
S1130A80A82E05C0B82CA32C03C0B82C01C0B92CC7
S1130A90A4FE0FC0FE01E80DF11D8081803321F416
S1130AA09A2D997EA92E09C0A2FE06C0B394B394D0
S1130AB004C08A2D867809F0B394A3FC11C0A0FE6B
S1130AC006C0B21488F4280C922C9B180EC0B214E1
S1130AD060F4B60180E290E00E94D405B394F7CFAD
S1130AE0B21418F42B1802C0982C212CA4FE10C0A8
S1130AF0B60180E390E00E94D405A2FE17C0A1FCD9
S1130B0003C088E790E002C088E590E0B6010CC01D
S1130B108A2D867859F0A1FE02C08BE201C080E2E2
S1130B20A7FC8DE2B60190E00E94D405891438F444
S1130B30B60180E390E00E94D4059A94F7CF8A949A
S1130B40F301E80DF11D8081B60190E00E94D40507
S1130B508110F5CF222009F442CEB60180E290E064
S1130B600E94D4052A94F6CFF6018681978102C0AB
S1130B708FEF9FEF2B96E2E10C948A06FC0105901F
S1130B80615070400110D8F7809590958E0F9F1F8B
S1130B900895FC016150704001900110D8F78095D0
S1130BA090958E0F9F1F08950F931F93CF93DF93FC
S1130BB0FB01238121FD03C08FEF9FEF2CC022FF97
S1130BC016C046815781248135814217530744F466
S1130BD0A081B1819D012F5F3F4F318320838C938E
S1130BE0268137812F5F3F4F3783268314C08B01C3
S1130BF0EC01FB010084F185E02D0995892BE1F6D8
S1130C00D80116968D919C911797019617969C93EF
S1130C108E931697CE01DF91CF911F910F91089576
S1130C20FA01AA27283051F1203181F1E8946F9319
S1130C306E7F6E5F7F4F8F4F9F4FAF4FB1E03ED0BF
S1130C40B4E03CD0670F781F891F9A1FA11D680F5D
S1130C50791F8A1F911DA11D6A0F711D811D911D90
S1130C60A11D20D009F468943F912AE0269F112405
S1130C703019305D3193DEF6CF010895462F477069
S1130C80405D4193B3E00FD0C9F7F6CF462F4F70C4
S1130C90405D4A3318F0495D31FD4052419302D022
S1130CA0A9F7EACFB4E0A6959795879577956795C8
S1130CB0BA95C9F700976105710508959B01AC01C8
S1130CC00A2E06945795479537952795BA95C9F7EF
S1130CD0620F731F841F951FA01D08952F923F92CA
S1130CE04F925F926F927F928F929F92AF92BF9238
S1130CF0CF92DF92EF92FF920F931F93CF93DF93E4
S1130D00CDB7DEB7CA1BDB0B0FB6F894DEBF0FBE40
S1130D10CDBF09942A88398848885F846E847D848D
S1130D208C849B84AA84B984C884DF80EE80FD808F
S1130D300C811B81AA81B981CE0FD11D0FB6F89405
S1110D40DEBF0FBECDBFED010895F894FFCFC6
S1130D4E443A25337520533A25337500202020204C
S1130D5E414441532043617220202020003D3D2D0B
S1130D6E2D6A6F686E20666D732D2D3D3D004D6F9F
S1130D7E76696E6720466F7277617264005475727D
S1130D8E6E696E67204C656674005475726E696E7A
S1130D9E6720526967687400456D657267656E6396
S10B0DAE792053746F700000FA
S9030000FC
